:100000000C942A000C9434000C9434000C943400AA
:100010000C9434000C9434000C9434000C94340090
:100020000C9434000C9434000C9434000C94340080
:100030000C9434000C9434000C9434000C94340070
:100040000C9434000C9434000C9434000C94340060
:100050000C94340011241FBECFE5D8E0DEBFCDBF25
:100060000E9453000C94A5000C940000CF93DF93E2
:1000700000D000D0CDB7DEB79C838B838B819C8171
:100080009A83898305C089819A8101979A8389839C
:1000900089819A810097B9F70F900F900F900F9078
:1000A000DF91CF910895CF93DF93CDB7DEB7289737
:1000B0000FB6F894DEBF0FBECDBF19828FEF8B83D2
:1000C0001C8288EE93E09E838D8384EF91E0988775
:1000D0008F8387E390E02FEFFC01208381E390E0A2
:1000E000FC01108280E390E0FC0190818B819817E5
:1000F00059F107C089818F5F89838D819E810E941C
:10010000360080E390E0FC0190818B81981791F795
:1001100088EE9DEF0E94360088E390E02C81FC0180
:10012000208389818A8307C08D819E810E94360049
:100130008A8181508A838A818823B1F788E390E09D
:0E0140002B81FC012083CECFCDCFF894FFCFD2
:00000001FF
