:100000000C942A000C9447000C9447000C94470071
:100010000C9447000C9447000C9447000C94470044
:100020000C9447000C9447000C9447000C94470034
:100030000C9447000C9447000C9447000C94470024
:100040000C9447000C9447000C9447000C94470014
:100050000C94470011241FBECFE5D8E0DEBFCDBF12
:1000600010E0A0E6B0E0EEEFF1E002C005900D92E6
:10007000A636B107D9F710E0A6E6B0E001C01D92A0
:10008000A736B107E1F70E94C4000C94FD000C9460
:100090000000CF93DF9300D000D0CDB7DEB79C83B4
:1000A0008B838B819C819A83898305C089819A8106
:1000B00001979A83898389819A810097B9F70F9074
:1000C0000F900F900F90DF91CF910895CF93DF9312
:1000D0001F92CDB7DEB7198288E390E020916600C9
:1000E000FC01208309C089818F5F8983809163002F
:1000F000909164000E94490080E390E0FC019081AF
:1001000080916000981779F788E390E02091600073
:10011000FC0120838981882F90E00F90DF91CF919F
:100120000895CF93DF9300D000D0CDB7DEB79C8386
:100130008B8388E390E020916600FC0120838B8113
:100140009C819A8389830FC000000000000000009A
:1001500080916300909164000E94490089819A8196
:1001600001979A83898389819A81009769F788E347
:1001700090E020916000FC0120830F900F900F9081
:100180000F90DF91CF910895CF93DF931F92CDB75A
:10019000DEB7198287E390E02FEFFC01208381E333
:1001A00090E0FC01108288E390E020916600FC0161
:1001B000208380916100909162000E94490088E351
:1001C00090E020916000FC01208380E390E0FC013E
:1001D000908180916000981779F00E946600898371
:1001E00080916100909162000E9449008981882F6E
:0E01F00090E00E949100E9CFE8CFF894FFCF95
:0601FE00FFE8FD8813007C
:00000001FF
