:100000000C942A000C9447000C9447000C94470071
:100010000C9447000C9447000C9447000C94470044
:100020000C9447000C9447000C9447000C94680013
:100030000C9447000C9447000C9447000C94470024
:100040000C9447000C9447000C9447000C94470014
:100050000C94470011241FBECFE5D8E0DEBFCDBF12
:1000600010E0A0E6B0E0E6E8F2E002C005900D92F4
:10007000A236B107D9F710E0A2E6B0E001C01D92A8
:10008000A436B107E1F70E9420010C9441010C94C1
:100090000000CF93DF93CDB7DEB787E390E02FEF7B
:1000A000FC01208381E390E0FC01108283E590E075
:1000B00025E0FC01208388E590E021E0FC0120831D
:1000C00089E590E021E0FC012083DF91CF91089544
:1000D0001F920F9200905F000F9211248F93CF9385
:1000E000DF93CDB7DEB7809163008F5F80936300AD
:1000F000DF91CF918F910F9000925F000F901F9032
:100100001895CF93DF931F92CDB7DEB789831092F6
:10011000630000008981282F30E080916300882FE0
:1001200090E0A901481B590BCA011816190694F34F
:100130000F90DF91CF910895CF93DF93CDB7DEB7C6
:1001400088E390E020916200FC012083909161009F
:100150008BEA989F812D112486950E94810088E367
:1001600090E020916000FC012083909161008BEA77
:10017000989F812D1124869586950E94810088E3A1
:1001800090E020916200FC012083909161008BEA55
:10019000989F812D112486950E94810088E390E02C
:1001A00020916000FC012083DF91CF910895CF93CF
:1001B000DF93CDB7DEB71092630088E390E0209123
:1001C0006200FC012083000080E390E0FC0190814C
:1001D000809160009817C1F788E390E0209160005B
:1001E000FC01208380916300882F90E0DF91CF9104
:1001F0000895CF93DF931F92CDB7DEB78983109216
:10020000630088E390E020916200FC0120830000FD
:100210008981282F30E080916300882F90E0A90128
:10022000481B590BCA011816190694F388E390E08D
:1002300020916000FC0120830F90DF91CF91089501
:10024000CF93DF931F92CDB7DEB70E944900789419
:1002500019820E949C0080E390E0FC0190818091D3
:100260006000981769F0109263000E94D70089839C
:10027000809161000E94810089810E94F900EBCF8A
:06028000EACFF894FFCF65
:02028600FF0671
:00000001FF
