:100000000C942A000C9447000C9447000C94470071
:100010000C9447000C9447000C9447000C94470044
:100020000C9447000C9447000C9447000C94680013
:100030000C9447000C9447000C9447000C94470024
:100040000C9447000C9447000C9447000C94470014
:100050000C94470011241FBECFE5D8E0DEBFCDBF12
:1000600010E0A0E6B0E0E4E7F3E002C005900D92F6
:10007000A436B107D9F710E0A4E6B0E001C01D92A4
:10008000AC36B107E1F70E9476010C94B8010C94EC
:100090000000CF93DF93CDB7DEB787E390E02FEF7B
:1000A000FC01208381E390E0FC01108283E590E075
:1000B00025E0FC01208388E590E021E0FC0120831D
:1000C00089E590E021E0FC012083DF91CF91089544
:1000D0001F920F9200905F000F9211242F933F9375
:1000E0005F936F937F938F939F93AF93BF93EF93A0
:1000F000FF93CF93DF9300D0CDB7DEB78091690037
:1001000090916A00019690936A00809369008091B3
:100110006700909168000196909368008093670053
:100120008091690090916A0020916200222F30E056
:10013000B9010E94A4010097A9F480916600805F34
:100140008093660080916600813F10F010926600F7
:1001500088E390E03091660020916B00230F20959A
:10016000FC0120830F900F90DF91CF91FF91EF91D1
:10017000BF91AF919F918F917F916F915F913F91CF
:100180002F910F9000925F000F901F901895CF93C2
:10019000DF9300D0CDB7DEB79A83898310926800D1
:1001A000109267000000809167009091680029819B
:1001B0003A8128173907B9F70F900F90DF91CF9147
:1001C0000895CF93DF93CDB7DEB788E390E0209119
:1001D0006400FC01208382E090E00E94C70088E375
:1001E00090E020916000FC01208381E090E00E947B
:1001F000C70088E390E020916400FC01208382E046
:1002000090E00E94C70088E390E020916000FC012C
:100210002083DF91CF910895CF93DF93CDB7DEB7E1
:1002200010926800109267008091610080936B00CB
:1002300088E390E03091660020916B00230F2095B9
:10024000FC012083000080E390E0FC01908180911C
:1002500060009817C1F78091650080936B0088E378
:1002600090E03091660020916B00230F2095FC01F7
:1002700020838091670090916800DF91CF9108956D
:10028000CF93DF9300D0CDB7DEB79A8389831092E6
:100290006800109267008091610080936B0088E392
:1002A00090E03091660020916B00230F2095FC01B7
:1002B00020830000809167009091680029813A8135
:1002C00028173907B9F78091650080936B0088E3A0
:1002D00090E03091660020916B00230F2095FC0187
:1002E00020830F900F90DF91CF910895CF93DF93EC
:1002F00000D0CDB7DEB70E944900789480916500A8
:1003000080936B00109266001A8219820E94E100AD
:1003100080E390E0FC01908180916000981799F053
:1003200010926800109267000E940C019A838983E2
:1003300080916200882F90E00E94C70089819A8195
:100340000E944001E5CFE4CFAA1BBB1B51E107C0CF
:10035000AA1FBB1FA617B70710F0A61BB70B881F55
:10036000991F5A95A9F780959095BC01CD010895E4
:04037000F894FFCF2F
:04037400FF0F020075
:00000001FF
