:100000000C942A000C9447000C9447000C94470071
:100010000C9447000C9447000C9447000C94470044
:100020000C9447000C9447000C9447000C94470034
:100030000C9447000C9447000C9447000C94470024
:100040000C9447000C9447000C9447000C94470014
:100050000C94470011241FBECFE5D8E0DEBFCDBF12
:1000600010E0A0E6B0E0E2E4F3E002C005900D92FB
:10007000AA36B107D9F710E0AAE6B0E001C01D9298
:10008000AD36B107E1F70E9487010C949F010C94F3
:100090000000DF93CF93CDB7DEB787E390E02FEF7B
:1000A000FC01208388E390E020916000FC01208324
:1000B0008AE390E020916100FC0120838BE390E0D3
:1000C000209161002095FC01208389E390E0FC01F0
:1000D000808180936C00CF91DF910895DF93CF935F
:1000E000CDB7DEB788E390E020916A00FC01208361
:1000F000CF91DF910895DF93CF9300D000D0CDB79B
:10010000DEB79C838B838B819C819A83898305C016
:1001100089819A8101979A83898389819A8100973D
:10012000B9F70F900F900F900F90CF91DF91089536
:10013000DF93CF9300D000D00F92CDB7DEB7809180
:1001400060008D83000089E390E0FC019081809144
:100150006C009817C1F38EE190E00E947B001A8238
:1001600019824AC08BE390E029813A812E593F4F92
:10017000F90120812095FC01208389E390E0FC01B6
:10018000808180936B001C821B822CC089E390E0ED
:10019000FC018081282F30E080916B00482F50E0D7
:1001A0008B819C818A599F4FFC018081882F90E030
:1001B00080959095842395232817390771F48B81B6
:1001C0009C818A599F4FFC01208189819A818E5997
:1001D0009F4FFC018081820F8D838B819C810196D2
:1001E0009C838B838B819C81843091057CF28981F7
:1001F0009A8101969A83898389819A8184309105B5
:100200000CF4B0CF8BE390E0209161002095FC01CD
:100210002083000089E390E0FC01908180916C00D4
:100220009817C1F78EE190E00E947B008D810F90BE
:100230000F900F900F900F90CF91DF910895DF9363
:10024000CF93CDB7DEB72C970FB6F894DEBF0FBEB5
:10025000CDBF1C821B8284E88D8380E98E8380EA77
:100260008F8380EC888788E390E020916000FC0118
:1002700020831A82198233C00E949800482F9E0161
:10028000275F3F4F89819A81820F931FFC01408332
:1002900088E390E028E330E0F9012081220FFC019F
:1002A00020839E01275F3F4F89819A81820F931F90
:1002B000FC0140819E012B5F3F4F89819A81820F13
:1002C000931FFC018081481729F48B819C81019642
:1002D0009C838B8389819A8101969A838983898102
:1002E0009A818430910544F28B819C818430910500
:1002F00019F481E090E002C080E090E02C960FB607
:10030000F894DEBF0FBECDBFCF91DF910895DF938C
:10031000CF9300D0CDB7DEB70E94490001C00000E6
:100320000E941F019A83898389819A810097B9F37A
:100330000E946E0088EE9DEF0E947B00F1CFF89442
:02034000FFCFED
:0A034200FF7404102040800802013F
:00000001FF
