:100000000C942A000C9447000C9447000C94470071
:100010000C9447000C9447000C9447000C94470044
:100020000C9447000C9447000C9447000C94470034
:100030000C9447000C9447000C9447000C94470024
:100040000C9447000C9447000C9447000C94470014
:100050000C94470011241FBECFE5D8E0DEBFCDBF12
:1000600010E0A0E6B0E0EAE9F3E002C005900D92EE
:10007000A237B107D9F710E0A2E7B0E001C01D92A6
:10008000A337B107E1F70E948B010C94CB010C94CC
:100090000000DF93CF93CDB7DEB787E390E02091E8
:1000A0006100FC01208388E390E020916000FC0166
:1000B00020838AE390E020916100FC01208381E3AA
:1000C00090E020916100FC01208383E590E021E035
:1000D000FC01208388E30E9431018FE00E943101FE
:1000E00081E00E94310182E00E943101CF91DF91D5
:1000F0000895DF93CF9300D000D000D0CDB7DEB706
:100100009E838D838D819E819A83898312C01C82F8
:100110001B8205C08B819C8101969C838B838B8184
:100120009C8181349105B4F389819A8101979A83E6
:10013000898389819A81009751F726960FB6F894A2
:10014000DEBF0FBECDBFCF91DF910895DF93CF9378
:1001500000D0CDB7DEB79A83898382E590E0FC01B9
:100160001082000082E590E0FC018081282F30E0C1
:1001700089819A8128173907A8F30F900F90CF91A2
:10018000DF910895DF93CF93CDB7DEB788E390E09A
:1001900020917200FC01208384E690E00E947900A7
:1001A00088E390E020916000FC01208384E690E0E9
:1001B0000E94790088E390E020917200FC01208386
:1001C00084E690E00E94790088E390E0209160004E
:1001D000FC012083CF91DF910895DF93CF93CDB7BA
:1001E000DEB78BE390E022E0FC01208381E090E029
:1001F0000E94A6008BE390E026E0FC01208381E0D2
:1002000090E00E94A6008BE390E027E0FC012083B1
:1002100081E090E00E94A6001BC08BE390E022E00A
:10022000FC01208381E090E00E94A6008BE390E037
:1002300026E0FC01208381E090E00E94A6008BE391
:1002400090E027E0FC01208381E090E00E94A6007E
:1002500082E390E0FC0180818823FCF2CF91DF9162
:100260000895DF93CF930F92CDB7DEB789838BE3E9
:1002700090E0FC01108281E090E00E94A6008BE3F8
:1002800090E021E0FC01208381E090E00E94A60044
:1002900082E390E02981FC01208381E090E00E94CC
:1002A000A6008BE390E0FC01108284E690E00E94BF
:1002B000A6000F90CF91DF910895DF93CF930F9217
:1002C000CDB7DEB789838BE390E022E0FC01208389
:1002D00081E090E00E94A6008BE390E023E0FC0127
:1002E000208381E090E00E94A60082E390E02981D3
:1002F000FC01208381E090E00E94A6008BE390E067
:1003000022E0FC01208384E690E00E94A6000F908A
:10031000CF91DF910895DF93CF9300D0CDB7DEB7B3
:100320000E9449000E94C20080E80E9431011A82A6
:1003300019820DC089819A818E599F4FFC0180815D
:100340000E945D0189819A8101969A8389838981BE
:100350009A818830910574F380EC0E9431011A82F1
:1003600019820DC089819A8186599F4FFC01808135
:100370000E945D0189819A8101969A83898389818E
:100380009A818830910574F380E090E00F900F908F
:0A039000CF91DF910895F894FFCF9C
:10039A00FFFF48656C6C6F202020576F726C6421D8
:0203AA00202011
:00000001FF
