:100000000C942A000C9447000C9447000C94470071
:100010000C9447000C9447000C9447000C94470044
:100020000C9447000C9447000C9447000C94A200D9
:100030000C9447000C9447000C9447000C94470024
:100040000C9447000C9447000C9447000C94470014
:100050000C94470011241FBECFE5D8E0DEBFCDBF12
:1000600010E0A0E6B0E0E2EFF1E002C005900D92F2
:10007000A236B107D9F710E0A2E6B0E001C01D92A8
:10008000A336B107E1F70E94E9000C94F7000C9445
:100090000000DF93CF93CDB7DEB787E390E02FEF7B
:1000A000FC01208381E390E0FC01108283E590E075
:1000B00021E0FC01208388E590E021E0FC01208321
:1000C00089E590E021E0FC012083CF91DF91089544
:1000D000DF93CF9300D000D0CDB7DEB79C838B8366
:1000E0001A82198205C089819A8101969A8389832F
:1000F00029813A818B819C8128173907A0F30F90C1
:100100000F900F900F90CF91DF910895DF93CF93D1
:1001100000D0CDB7DEB79A83898382E590E0FC01F9
:100120001082000082E590E0FC018081282F30E001
:1001300089819A8128173907A8F30F900F90CF91E2
:10014000DF9108951F920F920FB60F9211242F93F3
:100150003F934F935F936F937F938F939F93AF934F
:10016000BF93EF93FF93DF93CF93CDB7DEB78EECC2
:1001700090E0FC010995CF91DF91FF91EF91BF9144
:10018000AF919F918F917F916F915F914F913F912F
:100190002F910F900FBE0F901F901895DF93CF9364
:1001A000CDB7DEB788E390E020916200FC012083A8
:1001B00080E49CE90E94680088E390E02091600060
:1001C000FC01208380E49CE90E946800CF91DF91CC
:1001D0000895DF93CF93CDB7DEB70E94490078949E
:1001E00088E390E020916000FC012083FFCFF89429
:0201F000FFCF3F
:0201F200FF000C
:00000001FF
