:100000000C942A000C9447000C9447000C94470071
:100010000C9447000C9447000C9447000C94470044
:100020000C9447000C9447000C9447000C94470034
:100030000C9447000C9447000C9447000C94470024
:100040000C9447000C9447000C9447000C94470014
:100050000C94470011241FBECFE5D8E0DEBFCDBF12
:1000600010E0A0E6B0E0E6EBF6E002C005900D92ED
:10007000A836B107D9F710E0A8E6B0E001C01D929C
:10008000AF36B107E1F70E94D0010C9459030C94EC
:100090000000DF93CF93CDB7DEB781E090E066E05C
:1000A00070E00E94DE0190936A0080936900809165
:1000B000690090916A00FC0111821082CF91DF915A
:1000C0000895DF93CF93CDB7DEB728970FB6F89496
:1000D000DEBF0FBECDBF9E838D8378876F838F81F8
:1000E0009885FC01118210828F819885FC01138212
:1000F00012828F81988522E030E0FC0135832483D1
:100100008D819E81FC01808191810097E1F48D8138
:100110009E812F813885FC01338322838D819E81CE
:100120002F813885FC01358324838D819E81FC01DC
:10013000808191819C012F5F3F4F8D819E81FC01C9
:10014000318320834EC08D819E81FC018481958105
:100150009A8389831C821B823BC08F819885FC0116
:10016000208589819A81FC018085281740F4898146
:100170009A81FC01828193819A83898329C08F812E
:10018000988529813A81FC013383228389819A8170
:10019000FC01208131818F819885FC01318320838E
:1001A00089819A812F813885FC01318320838D815B
:1001B0009E81FC01808191819C012F5F3F4F8D8149
:1001C0009E81FC013183208381E090E09C838B83BE
:1001D00089819A81009729F08B819C81009709F48D
:1001E000BCCF28960FB6F894DEBF0FBECDBFCF911F
:1001F000DF910895DF93CF9300D0CDB7DEB79A8318
:10020000898389819A81FC01828193810F900F906B
:10021000CF91DF910895DF93CF9300D0CDB7DEB7B4
:100220009A83898389819A81FC01828193810097D5
:1002300069F089819A81FC0182819381FC0120818E
:10024000318189819A81FC01338322830F900F9041
:10025000CF91DF910895DF93CF9300D00F92CDB768
:10026000DEB79A8389836B8387E390E02FEFFC01ED
:10027000208384E390E0FC01108283E590E021E09C
:10028000FC01208388E590E021E0FC01208389E5E2
:1002900090E021E0FC0120830E94490085EB91E081
:1002A00061E00E9459010F900F900F90CF91DF9164
:1002B0000895DF93CF9300D000D00F92CDB7DEB773
:1002C0009C838B836D8381E090E069E070E00E9405
:1002D000DE019A83898389819A81FC0111821082CF
:1002E00089819A81FC011382128289819A8124E09A
:1002F00030E0FC013583248389819A812B813C8104
:10030000FC013783268389819A812D81FC01208716
:100310008091690090916A0029813A81B9010E9417
:1003200061000F900F900F900F900F90CF91DF9181
:100330000895DF93CF9300D0CDB7DEB79A8389833A
:1003400082E590E0FC011082000082E590E0FC0173
:100350008081282F30E089819A8128173907A8F3F6
:100360000F900F90CF91DF910895DF93CF93CDB78A
:10037000DEB788E390E020916800FC01208380E4F0
:100380009CE90E94990188E390E020916000FC01C3
:10039000208380E49CE90E949901CF91DF91089528
:1003A000DF93CF93CDB7DEB78AE090E061E00E94A3
:1003B0002B0180E090E0CF91DF910895EF92FF92C2
:1003C0000F931F93CF93DF93689F8001699F100D58
:1003D000789F100D1124C8010E940202E82EE70147
:1003E0007E01F92EE701209731F08E2D60E070E05C
:1003F000A8010E9437037E01CE01CDB7DEB7E6E04B
:100400000C944A03CF93DF938230910510F482E07D
:1004100090E0E0916D00F0916E0020E030E040E06F
:1004200050E028C06081718168177907C8F06817AB
:10043000790781F4828193814115510531F0DA0108
:1004400013969C938E9312972DC090936E00809379
:100450006D0028C02115310529F06217730710F0CF
:10046000B90102C0EA01DF01AF019B017281638122
:10047000E72FF62F3097B1F62115310501F1281B32
:10048000390B2430310580F412968D919C9113978D
:10049000209719F09B838A8304C090936E00809309
:1004A0006D00FD01329646C0FD01E20FF31F8193FE
:1004B00091932250304011963C932E933BC0209153
:1004C0006B0030916C002115310541F420916300DF
:1004D0003091640030936C0020936B002091650094
:1004E000309166002115310541F42DB73EB740919A
:1004F000610050916200241B350BE0916B00F0917C
:100500006C00E217F307A0F42E1B3F0B28173907E6
:1005100078F0AC014E5F5F4F2417350748F04E0F5F
:100520005F1F50936C0040936B008193919302C0C6
:10053000E0E0F0E0CF01DF91CF910895CF93DF931A
:10054000009709F491C0FC013297138212826091E6
:100550006D0070916E006115710581F4208131810B
:10056000280F391F80916B0090916C0082179307C0
:1005700099F5F0936C00E0936B0076C0DB0180E0AE
:1005800090E002C0CD01D901AE17BF0748F4129622
:100590002D913C91139721153105A1F7CD0121C073
:1005A000B383A283EF01499159919E01240F351F16
:1005B000A217B30779F42D913C911197240F351FA1
:1005C0002E5F3F4F3183208312962D913C911397DC
:1005D00033832283009729F4F0936E00E0936D003B
:1005E00043C0DC011396FC93EE9312974D915D91FD
:1005F000A40FB51FEA17FB0769F420813181240F8E
:10060000351F2E5F3F4FEC013983288322813381D0
:100610003B832A83E0E0F0E002C0FB01BC01DB0188
:1006200012968D919C9113970097B9F79B012E5FBD
:100630003F4F8D919C911197820F931F40916B00BA
:1006400050916C004817590779F4309729F41092AB
:100650006E0010926D0002C0138212822250304050
:1006600030936C0020936B00DF91CF910895DC01F3
:1006700001C06D9341505040E0F708952A883988B1
:1006800048885F846E847D848C849B84AA84B9842A
:10069000C884DF80EE80FD800C811B81AA81B98136
:1006A000CE0FD11D0FB6F894DEBF0FBECDBFED014A
:0606B0000895F894FFCF4D
:0806B600FF20006F00000000AE
:00000001FF
